:100000000C94BC050C94D9050C94D9050C94062FBE
:100010000C94D9050C94D9050C94D9050C94D905E8
:100020000C94D9050C94D9050C94A0160C945C1B67
:100030000C94D5270C94D9050C94D9050C94D905AA
:100040000C94D9050C94D9050C94D9050C94D905B8
:100050000C94D9050C9479170C94D9050C94D905F6
:100060000C94D9050C94D9050C94D9050C94D90598
:100070000C94D9050C94D9050C94D9050C94D90588
:100080000C94D9050C94D9050C94D9050C94D90578
:100090000C94D9050C94D9050C94D9050C94D90568
:1000A0000C94D9050C94D9050C94D9052900340079
:1000B0003600370013001C00E100040012000800A5
:1000C00018000C004C61330014000D000E001B00E2
:1000D000000000000000E20028412B002A000F0071
:1000E000150006000A000900E500160011001700BF
:1000F0000B0007004C611D0019001A0010000500DC
:10010000000000000000E30028422C002900340019
:100110002202240231003800E1002D002E002F00C1
:1001200030001F024C6133002002260227021E020B
:10013000000000000000E20028432B002A005600C7
:1001400020001F001E005700E5005400230022007D
:10015000210055004C6127002600250024003500B1
:10016000000000000000E30028432C0029003A00B2
:100170003B003C0043000000E1003D003E003F002A
:10018000440000004C614000410042004500000076
:10019000000000000000E20003512B002A004C0088
:1001A0004D0052004A004C00E50000004F00510095
:1001B000500000004C610000000000000000000042
:1001C000000000000000E3000351280029000000A7
:1001D0000000000000000000E1000000C35CC65CFD
:1001E000C85CCA5C4C610000C45CC75CC95CCB5C89
:1001F000000000000000E30001002C002A00430082
:100200003C003B003A000000E50044003F003E0097
:100210003D0000004C6145004200410040000000EC
:10022000000000000000E6000100280000DA028162
:10023000FFD9F1DB20A4A62EAF00A0C000A1C8000A
:10024000AED580A81FD300408D1420001E0F0500DE
:10025000047F3F1F643214643214783C1E1E140A5B
:1002600005456D707479004E61766967617465004B
:100270004E756D626572730044766F72616B004CEF
:10028000617965723A2000808182838485868788BF
:10029000898A8B8C8D8E8F9091929394A0A1A2A32A
:1002A000A4A5A6A7A8A9AAABACADAEAFB0B1B2B396
:1002B000B4C0C1C2C3C4C5C6C7C8C9CACBCCCDCEE1
:1002C000CFD0D1D2D3D4000001010101010101013D
:1002D00001020202020202020202030303030303F9
:1002E00003030404040404040405050505050606C7
:1002F0000606060707070707080808080909090985
:100300000A0A0A0B0B0B0C0C0C0D0D0D0E0E0E0F2A
:100310000F0F1010111111121213131414151516BA
:10032000161717181819191A1A1B1B1C1D1D1E1E2B
:100330001F2020212222232424252626272829297C
:100340002A2B2C2D2D2E2F303132323334353637A7
:1003500038393A3B3C3D3E3F4041424344454647A5
:1003600048494A4C4D4E4F50515354555658595A7E
:100370005B5D5E5F616264656668696B6C6D6F7022
:1003800072737577787A7B7D7E8082838587888A91
:100390008C8E8F91939596989A9C9EA0A2A3A5A7C8
:1003A000A9ABADAFB1B3B5B7BABCBEC0C2C4C6C9C4
:1003B000CBCDCFD1D4D6D8DBDDDFE2E4E7E9EBEE7D
:1003C000F0F3F5F8FAFDFFFFAA7F5540222325261A
:1003D00028292A2C2D2F3032333536383A3B3D3EF2
:1003E0004042434547494A4C4E5051535557595A3C
:1003F0005C5E6062646668696B6D6F717375777956
:100400007B7D7F81838587898A8C8E909294969854
:100410009A9C9E9FA1A3A5A7A8AAACAEAFB1B3B466
:10042000B6B8B9BBBCBEBFC1C2C3C5C6C7C9CACBBB
:10043000CCCDCED0D1D2D2D3D4D5D6D7D7D8D9D986
:10044000DADADBDBDBDCDCDCDCDCDDDDDDDDDCDCEF
:10045000DCDCDCDBDBDBDADAD9D9D8D7D7D6D5D40C
:10046000D3D2D2D1D0CECDCCCBCAC9C7C6C5C3C2D8
:10047000C1BFBEBCBBB9B8B6B4B3B1AFAEACAAA82D
:10048000A7A5A3A19F9E9C9A98969492908E8C8AE1
:1004900089878583817F7D7B79777573716F6D6BBC
:1004A0006968666462605E5C5A5957555351504E94
:1004B0004C4A4947454342403E3D3B3A3836353346
:1004C00032302F2D2C2A29282625232200AF00AEDA
:1004D00005010902A10185020901A100050919010F
:1004E00029081500250195087501810205010930CB
:1004F00009311581257F9502750881060938158116
:10050000257F950175088106050C0A38021581259D
:100510007F950175088106C0C005010980A101858C
:100520000319012AB700150126B70095017510813E
:1005300000C0050C0901A101850419012AA00215BA
:100540000126A002950175108100C005010906A1D0
:10055000018506050719E029E715002501950875AD
:100560000181020507190029EF1500250195F07595
:10057000018102050819012905950575019102956A
:100580000175039101C005010906A101050719E0E4
:1005900029E7150025019508750181029501750867
:1005A00081010507190029FF150026FF0095067532
:1005B0000881000508190129059505750191029525
:1005C0000175039101C009023B00020100A0FA0974
:1005D0000400000103010100092111010001224072
:1005E0000007058103080001090401000103000060
:1005F0000009211101000122B60007058203200035
:100600000112010002000000085346010001000130
:100610000200010C0343006F0072006E00650000D1
:1006200000100366006F006F007300740061006EBD
:10063000000000040309040000000000003E5B4FBE
:100640005B3E003E6B4F6B3E001C3E7C3E1C001828
:100650003C7E3C18001C577D571C001C5E7F5E1CB6
:100660000000183C180000FFE7C3E7FF0000182453
:10067000180000FFE7DBE7FF0030483A060E0026CF
:100680002979292600407F05050700407F05253F81
:10069000005A3CE73C5A007F3E1C1C0800081C1C0A
:1006A0003E7F0014227F2214005F5F005F5F000620
:1006B000097F017F00006689956A00606060606064
:1006C0000094A2FFA2940008047E04080010207E7B
:1006D00020100008082A1C0800081C2A0808001E10
:1006E00010101010000C1E0C1E0C0030383E38305C
:1006F00000060E3E0E060000000000000000005F35
:10070000000000000700070000147F147F1400247D
:100710002A7F2A12002313086462003649562050AB
:1007200000000807030000001C22410000004122D5
:100730001C00002A1C7F1C2A0008083E0808000034
:1007400080703000000808080808000000606000A1
:10075000002010080402003E5149453E0000427F3F
:100760004000007249494946002141494D33001873
:1007700014127F10002745454539003C4A4949314C
:1007800000412111090700364949493600464949C7
:10079000291E00000014000000004034000000008A
:1007A00008142241001414141414000041221408E7
:1007B000000201590906003E415D594E007C1211AC
:1007C000127C007F49494936003E41414122007F69
:1007D0004141413E007F49494941007F09090901E2
:1007E000003E41415173007F0808087F0000417FAF
:1007F0004100002040413F01007F08142241007F5A
:1008000040404040007F021C027F007F0408107FB0
:10081000003E4141413E007F09090906003E415129
:10082000215E007F09192946002649494932000303
:10083000017F0103003F4040403F001F2040201F38
:10084000003F4038403F00631408146300030478FD
:100850000403006159494D4300007F4141410002BA
:100860000408102000004141417F000402010204FD
:10087000004040404040000003070800002054545E
:100880007840007F284444380038444444280038E5
:100890004444287F0038545454180000087E09024C
:1008A000001824241C78007F080404780000447D8C
:1008B0004000002040403D00007F10284400000020
:1008C000417F4000007C04780478007C08040478B0
:1008D000003844444438007C182424180018242488
:1008E000187C007C08040408004854545424000474
:1008F000043F4424003C4040207C001C2040201C3D
:10090000003C4030403C004428102844004C90906B
:10091000907C004464544C440000083641000000C0
:1009200000770000000041360800000201020402C6
:10093000003C2623263C00000000000000000000D0
:1009400000000000000000C0E0F0F8F81800C0F05F
:10095000FCFEFFFFFFFFFFFFFF7E00000000000026
:1009600000000080C0E0E0E0E0E0E0E0E0C0800007
:1009700000000080C0E0E0E0E0E0E0E0E0C08000F7
:100980000000E0E0C0C0E0E0E0E00000E0E0C0C067
:10099000E0E0E0E0E0C0800000000080C0E0E0E0D7
:1009A000E0E0E0E0E0C080000000000000000000A7
:1009B0000000000000E0F0F0F0E0ECEEF7F3702053
:1009C000007C7C7C7E007E7E7E7F7F7F000080C0FE
:1009D000E07E5B4F5BFEC00000C000DCD7DEDEDEE9
:1009E000D7DC00C000000000000000000000000094
:1009F00000000000000000000000000000000000F7
:100A0000F8FCFEFFE000FFFFFFFFFFFF80FFFFFF9E
:100A1000FFFFFFFFFFFF1F070100000000000000B5
:100A20000000FFFFFF8100000000000081C3C3C37E
:100A30000000FFFFFF8100000000000081FFFFFFBA
:100A40000000FFFFFF01000000000000FFFFFF01AA
:100A50000000000001FFFFFF0000FFFFFF9D1C1CC6
:100A60001C1C1C1C9DDFDFDF0000000000000000DC
:100A700000000000000F1F3F7F7F7F7F7F3F1E0C25
:100A8000001F1F1F3F003F3F3F7F7F7F00307B7F66
:100A90007830202030787F3B0003000F7F0F0F0F4E
:100AA0007F0F0003000000000000000000000000B5
:100AB0000000000000000000000000000000000036
:100AC000030F1F3F3F3F3F1F1F3F3F7F7F7F3F3F42
:100AD0001F3F7F7F7F7F7C7878381C0F00000000ED
:100AE00000000001030707070707070707030100C6
:100AF00000000001030707070707070707030100B6
:100B000000000707070000000000000007070700BB
:100B100000000000000707070000000103070707A7
:100B2000070707070703010000000000000000009E
:100B300000000000000000000000000000000000B5
:100B400000000000000000000000000000000000A5
:100B50000000000000000000000000000000000095
:100B60000000000000000000000000000000000085
:100B7000000000000000000011241FBECFEFDAE0EB
:100B8000DEBFCDBF27E0AAE0B2E001C01D92AD35C7
:100B9000B207E1F712E0A0E0B1E0E2E5F9E602C059
:100BA00005900D92AA30B107D9F70E94FC270C944A
:100BB00082340C940000FC01AC014C5F5F4F8FEF5E
:100BC00091E32191822728E030E087FF09C0880F58
:100BD000892721503109C9F7E417F50791F70895DE
:100BE000880FF7CFE8EDF0E080818E7F8083109250
:100BF000E2001092DA001092E100A0EEB0E08C91D9
:100C000081608C9380818F77808319BCA7EDB0E0E1
:100C10008C918E7F8C9380818F7E808310922005B3
:100C200008952091E4003091E50095E6A901209116
:100C3000EC00822F817020FF06C08091E80080FFC9
:100C400006C080E008952091E80022FD1AC080913E
:100C50004505882389F0853089F08091EB0085FD7A
:100C60000FC02091E4003091E50042175307F9F2DC
:100C70009150E1F684E0089582E0089583E00895BC
:100C800081E00895EF92FF920F931F93CF937C0121
:100C90008B010E941106C82F811117C08091E800B6
:100CA00085FD0BC08091E8008E778093E8000E945C
:100CB0001106882399F3C82F08C0F70181917F019D
:100CC0008093F1000150110949F78C2FCF911F91AA
:100CD0000F91FF90EF9008958091470587FF13C013
:100CE0008091E80082FF06C08091E8008B778093B6
:100CF000E80004C0809145058111F2CF08958091EC
:100D000045058823D9F38091E80080FFF8CF8091D2
:100D1000E8008E77ECCF982F9093E900242F762F60
:100D200050E0891731F07091EC002091ED00509166
:100D3000F00021FD07C09F5F973071F78093E900B5
:100D400081E008953091EB003E7F3093EB003091CD
:100D5000ED003D7F3093ED003091EB00316030933A
:100D6000EB007093EC002093ED005093F000209185
:100D7000EE0027FDE0CF80E00895CF92DF92EF9262
:100D8000FF920F931F93CF93DF93C8EDD0E088813C
:100D90008F7E8883E7EDF0E080818160808384E04E
:100DA00082BF81E08093200588818E7F888302EE58
:100DB00010E0F80110821092DA0081EEC82ED12CDA
:100DC000F601108288818F77888388818068888384
:100DD00088818F7D888319BC109245051092460545
:100DE000109244051092430590EEE92EF12CF70184
:100DF00080818B7F808388818160888342E060E08E
:100E000080E00E948B06F60180818E7F8083F8014E
:100E1000808181608083808188608083F701808108
:100E20008E7F8083888180618883DF91CF911F913D
:100E30000F91FF90EF90DF90CF900895FC0180918B
:100E40004D0590914E0586179707A0F06115710525
:100E500029F49091E8009E779093E80090E0611566
:100E6000710551F4911108C08091E80082FF34C0EF
:100E700080E00895BC01F2CF809145058823C1F13F
:100E80008530C1F18091E80083FD30C08091E80099
:100E900082FDEACF8091E80080FFE1CF8091F300EE
:100EA0002091F200382F6115710519F028303105B5
:100EB00058F091E02830310509F090E02091E800E9
:100EC0002E772093E800CBCF81918093F100615081
:100ED00071092F5F3F4FE7CF80914505882341F08F
:100EE000853041F08091E80083FFBECF81E0089516
:100EF00082E0089583E00895089580912205089581
:100F000087E797E7909301088093000888E19AE0CB
:100F10000FB6F894A895809360000FBE9093600080
:100F2000FFCF2FB7F8946091170570911805809145
:100F3000190590911A052FBF089520914B01222386
:100F4000C9F020911B0527FF15C0E62FE695E69511
:100F5000E695EE31D8F4E80FF92FF11D677021E026
:100F600030E001C0220F6A95EAF72095828128239C
:100F700022830895FC01329608962191621303C0E2
:100F8000DF0111971C92E817F907B9F7089520912E
:100F90004B012223C1F020911B0527FF14C0E62F2F
:100FA000E695E695E695EE31F8F4E80FF92FF11D98
:100FB000677021E030E001C0220F6A95EAF7828174
:100FC000822B82830895FC0132962FEF30E041910D
:100FD000641751F02F3F19F4411101C0232F3F5FD7
:100FE0003630A9F72F3F09F40895820F911D27FD90
:100FF0009A95FC016283089520911405309115059E
:101000002817390771F09093150580931405E09126
:101010001205F0911305309721F00084F185E02D41
:10102000099408952091100530911105281739076A
:1010300071F09093110580931005E0911205F091E5
:101040001305309721F00680F781E02D099408956B
:10105000FA01811101C0FB0109940895EFE4F3E066
:101060001182828184608283089580910505982F82
:101070009E7F61F4817082608093050580910805F0
:10108000893718F088E78093080508958635B0F30E
:1010900081708465F1CFAF92BF92DF92EF92FF92A1
:1010A0000F931F93CF93DF93182F062FE901493732
:1010B00008F048E7E42FF0E0E953FD4F011110C0BC
:1010C000E4915E2F4E2F4983E8835A83DF91CF91BD
:1010D0001F910F91FF90EF90DF90BF90AF90089518
:1010E000202F30E04491D42EE42EF12C56E0159FB1
:1010F000C0011124EFEFF0E0BF010E942230812FE8
:1011000090E0880F991F55E5569FD001579FB00D6D
:1011100011248A1B9B0B982F990F890F5F01A21A2C
:10112000B30AAE9CD001AF9CB00DBE9CB00D112493
:101130005B2F089F80011124012F11275F01A01A46
:10114000B10AAE9C8001AF9C100DBE9C100D112405
:101150005F01A81AB108A29EC001A39E900DB29E85
:10116000900D1124892F9927E81BF90BEE9DC001E2
:10117000EF9D900DFE9D900D1124E92F62307105B9
:10118000A1F050F46115710509F49DCF613071052E
:1011900081F0EB2F512F97CF6430710569F080F00B
:1011A0006630710509F48FCFF4CFE42F4B2F592F00
:1011B0008ACFE42F412F87CFEB2F542F492F83CF96
:1011C0004B2F5D2DE12F7FCF409145038D3E59F48C
:1011D0008091460387FF0DC01092460341110BC05A
:1011E00010923D0308C08E3E81F48091460318168C
:1011F0009CF3442381F08091470390914803892B0D
:1012000009F05AC010923C0308958F3E49F447FFFD
:10121000F0CF10924503809146038111ECCFE0CFCF
:10122000803F19F41416ACF3E4CF90914703893F43
:1012300029F41916F4F610924703DBCF8A3F19F40C
:1012400097FFD7CFF8CF909148038B3F29F497FFB2
:10125000D0CF10924803CDCF8C3F19F41916CCF3A0
:10126000C8CF9FE0980F983090F4815F990B21E0F0
:1012700030E0B90102C0660F771F8A95E2F7CB0113
:10128000809590914403892380934403B2CF8D3F8E
:1012900031F480913E038E7F80933E03AACF8E3F30
:1012A00021F480913E038D7FF7CF8F3F09F0A1CFCE
:1012B00080913E038B7FF0CF089580913E0380FDA7
:1012C00016C081FD16C082FD16C080913C038823A4
:1012D000A1F0883280F428E0829FC001112468E2E6
:1012E00070E00E945030862F672B39F0089582E01D
:1012F000089584E0089588E0089581E0089580913C
:101300003E0380FD14C081FD14C082FD16C0809193
:101310003D03882381F08E3180F420E5829FC00157
:1013200011246EE170E00E945030862F089584E110
:10133000089588E2089588E0089580E508958D3E37
:1013400031F40E947F0981958093460308958E3E73
:1013500019F40E947F09F8CF8F3E31F40E947F0973
:101360008195809345030895803F19F40E947F0979
:10137000F8CF893F29F40E945D09809347030895BF
:101380008A3F21F40E945D098195F7CF8B3F31F4AC
:101390000E945D0981958093480308958C3F19F45C
:1013A0000E945D09F8CF9FE0980F983070F4815F3C
:1013B000990B21E030E001C0220F8A95EAF7809175
:1013C0004403822B8093440308958D3F31F4809130
:1013D0003E03816080933E0308958E3F21F4809107
:1013E0003E038260F7CF8F3FB9F780913E03846060
:1013F000F1CF80E0089578940895F894E82FE2956D
:10140000EF70F0E031A1282F2F7081E090E001C053
:10141000880F2A95EAF7982F9095932391A392A18C
:10142000892B82A30C94FB0990911B0592FF06C0A7
:10143000282F28712830F9F4877F846093FF06C035
:10144000282F28712831F1F4877E846120911C05B2
:1014500020FF06C0382F38713830D9F4877F81607B
:1014600021FF06C0282F28712831D1F4877E8161A1
:1014700094FD877E0895282F24712430F9F68B7F00
:101480008860DCCF282F2471243101F78B7E88619E
:10149000DDCF382F3171313019F78E7F8860E0CF82
:1014A000282F2171213121F78E7E8861E1CFCF93E2
:1014B000DF93EC0182389105A9F1D8F581339105CC
:1014C00009F496C048F58932910509F48AC08A97D3
:1014D00009F495C0C11521E5D20708F0BCC0C115BB
:1014E00030E5D30708F014C1C83ED10508F09CC010
:1014F000C03ED10560F5C83AD10508F087C0C53AAD
:10150000D10508F0FDC0C130D10509F12097F9F0EF
:10151000C430D105E0F440C08533910509F45AC0C8
:10152000C997C1F680911B05837089F0C0EED0E0A9
:101530000EC0833E910599F170F4803E910501F152
:10154000823E910539F680911B0582FD21C0CE01B6
:10155000DF91CF910895863E910561F1873E910517
:1015600071F1843E910509F0B5CF80911C0581FF92
:10157000EECF80911B05C7EED0E084FD0DC0E7CF14
:1015800080911B0580FD12C190911C0590FFDFCF5B
:10159000C3EED0E084FFDBCFD0E0C0E0D8CF8091B5
:1015A0001B0582FD06C190911C0590FDBFCF84FFF5
:1015B000CECFF2CF80911B0583FDDDCFC8CF8091C8
:1015C0001B0583FDF9C090911C0591FFF0CFC4EE7F
:1015D000D0E0BDCF80911B0585FFB9CFC9E2D0E037
:1015E000B6CF80911B0585FFB2CFC5E3D0E0AFCF6A
:1015F00080911B0586FFABCFCAE2D0E0A8CF8091D7
:101600001B0586FFA4CFC1E3D0E0A1CFCF3BD1051E
:1016100018F6C85AD0E0CC0FDD1FC456DE4F099033
:10162000D881C02DD46493CFC11540E2D40758F4BB
:10163000C11581E0D80708F08ACFCD3ED10508F466
:10164000ABCFD06584CFC11590E4D90708F4A4CFFF
:10165000DF70D06A7CCFC11525E5D20700F5C11532
:1016600034E5D30708F08AC0C11543E5D40708F074
:1016700071C0C11582E5D80708F467C0CE01837038
:10168000992721E030E002C0220F331F8A95E2F74C
:10169000C695C69580E2C89FE001112452C0C115CD
:1016A00099E5D907A8F4C11528E5D20708F06BC061
:1016B000C11536E5D30708F06FCF8C2F0E94140AAE
:1016C000C82FD0E0DC2FCC27CC27DF71D0623FCFF2
:1016D000C1154AE5D40708F45BC0CE0190568115C8
:1016E000904208F059CF8D2F8F710E94140A90E01C
:1016F000982F882788279F719C012C2BE901E6CF22
:10170000C55AD0E0C756DE4FC881D0E0D0641FCFA5
:10171000CE01E4E096958795EA95E1F783702C2F4A
:1017200026952695237040E2249F90011124382BA2
:101730008C2F8370C1E0D0E002C0CC0FDD1F8A95F2
:10174000E2F7C22BD32BDC6802CFDC2FCC27C16F92
:10175000D06AFDCECE018370992721E030E002C02F
:10176000220F331F8A95E2F7C695C69590E2C99F6E
:10177000E0011124C22BD32BDA68E9CEDC2FCC2771
:10178000C46FD06AE4CEDC2FCC27C06FD06ADFCE26
:101790008C2F8F700E94140A34E0D695C7953A9525
:1017A000E1F7CF709C2FEC01D069D1CEC9E3D0E036
:1017B000CECEC2EED0E0CBCEC6EED0E0C8CE809189
:1017C000A60281111092A602089580959091A5021B
:1017D00098239093A50208958091820290915102DE
:1017E000981301C008958F5F8770FACFAF92BF92B0
:1017F000CF92DF92EF92FF920F931F93CF93DF93DD
:10180000C090FB02D090FC02E090FD02F090FE023E
:101810004091A7025091A8026091A9027091AA027A
:10182000C42AD52AE62AF72ACFE1D0E0082F10E013
:1018300026E0929F000D111D112490E3A92EBC2ECD
:10184000D701C6010C2E04C0B695A795979587952C
:101850000A94D2F780FD0FC0219788F7B12C8B2D09
:10186000DF91CF911F910F91FF90EF90DF90CF907C
:10187000BF90AF900895AC9EF001AD9EF00D112485
:10188000E00FF11FEE0FFF1FE455FF4F859194917C
:101890000E94570A019701F3E2CFCF93DF93EC0147
:1018A0000E94F60BEC2FF0E096E0D99FE00DF11DC1
:1018B000112490E3899FE00DF11D1124EE0FFF1F0D
:1018C000E455FF4F85919491DF91CF910C94570A85
:1018D000E92FEE0FE90FEE0F8E0F982F9770869578
:1018E0008695869525E0829FF0011124E35DFD4FEA
:1018F00050E040E080E0219130E0092E02C03695B2
:1019000027950A94E2F721703327042E01C0220F95
:101910000A94EAF7822B4F5F5F4F4530510559F724
:101920000895E92FEE0FE90FEE0F8E0F982F9770A5
:1019300041E001C0440F9A95EAF786958695869511
:1019400095E0899FF0011124E35DFD4F30E020E038
:1019500070E05191DF011197CB01022E02C09695E4
:1019600087950A94E2F781708195852784238527DE
:101970008C932F5F3F4F2530310559F70895FC01B7
:10198000808191810E944D0C92959F70963091F0CC
:1019900058F4925F9F70923058F4803F19F030F401
:1019A000883E30F481E008959A5FF4CF843FD1F30C
:1019B00080E00895883EB0F3813FD1F7F3CFCF9315
:1019C000DF93682F81E06A3019F06D3029F480E0F0
:1019D000DF91CF910C946E0D80915B0790915C0725
:1019E00026E0FC01A5E5B7E001900D922A95E1F70C
:1019F000603E08F45AC026E0FC0111922A95E9F7EE
:101A0000C0915B07D0915C0746E050E0BE0185E5E0
:101A100097E00E9422319E0125553540892B41F1E6
:101A2000C90145E0969587954A95E1F741E050E078
:101A3000BA0102C0660F771F8A95E2F7CB01609169
:101A4000530570915405862B972BB9016B5F7F4F1F
:101A5000E5E076956795EA95E1F702C0440F551FDA
:101A60006A95E2F7842B952B909354058093530548
:101A70002A5F3F4F40915205642F70E0C9010E94D8
:101A80002230481B463010F4240F311D211572E01E
:101A9000370710F030E020E02B5A3A4F30935C07C4
:101AA00020935B07DF91CF910895F6E06F9FB0011F
:101AB0001124695C794F46E050E00E940C31A0CFC0
:101AC000CF93DF93EC01FE018491811103C0DF917C
:101AD000CF9108950E94DF0C2196F5CFCF93382F38
:101AE000E0915B07F0915C07E555F54020915205C8
:101AF000622F70E0CF010E942230281B822F3323F7
:101B000061F066E00E943630C82FC15010F4CF91CA
:101B1000089580E20E94DF0CF8CF9F01280F311D4D
:101B20002115324018F080E0F0E0E0E08E0F9F2FAA
:101B3000911D8B5A9A4F90935C0780935B07E7CF78
:101B40008091A5029091A402892B80930C02909120
:101B5000A6029923A1F0892B80930C0280914B015E
:101B60008823D9F180911B0587FF37C08EE1EEE015
:101B7000F2E090E0815098F591110E94DF0B40E275
:101B800050E064E872E08CE092E00E942231892B00
:101B900059F180E2ECE0F2E0A4E8B2E001900D92AD
:101BA0008A95E1F7E0911205F09113053097E1F085
:101BB00080914B01882359F080911B0587FF07C056
:101BC00080910C0280930D0286E080930C020280CB
:101BD000F381E02D8CE092E0099486E0C8CF21915A
:101BE000222341F29F5FC6CF0895882321F00E94EF
:101BF000E50B0C94A00D0895882339F09091A5026F
:101C0000982B9093A5020C94A00D089580931D0528
:101C100070931F0560931E0580914505843001F582
:101C200082E08093E9008FEF9091E800815095FD6C
:101C300006C095ED9A95F1F700008111F5CF8091DE
:101C4000E80085FF0DC050E040E063E070E08DE10A
:101C500095E00E9442068091E8008E778093E8002C
:101C60000895BC0184E00C94060EBC0183E00C9442
:101C7000060E9C0182E08093E9009FEF8091E800CE
:101C8000915085FD06C085ED8A95F1F70000911110
:101C9000F5CF8091E80085FF0CC050E040E066E0A1
:101CA00070E0C9010E9442068091E8008E7780931F
:101CB000E8000895CF93DF93EC0180914B018823D6
:101CC000B1F180911B0587FF32C060E282E0809312
:101CD000E9008FEF9091E800815095FD06C095EDE9
:101CE0009A95F1F700008111F5CF8091E80085FF0A
:101CF0001BC080914B0170E050E040E0811104C0B6
:101D000050E040E068E070E0CE010E944206809121
:101D1000E8008E778093E80080E2FE01A3E2B5E060
:101D200001900D928A95E1F7DF91CF91089568E0D7
:101D300081E0CDCF609147018091050580FF20C0F3
:101D40008091460143E0849FC00111248B5A9C4F2F
:101D5000539A2BB1277F3BB138605FB7F894FC01F1
:101D6000649FE00DF11D1124BF0168177907D1F4BC
:101D70005FBF8FE594E00197F1F700C00000089580
:101D8000809148019091490123E0829FF001112444
:101D9000EB5AFC4F8917A0F61182108212828F5FD6
:101DA0003396F8CFFC014191CF01E8E03BB9000048
:101DB00000C047FF2BB9440F000000C000C000C0A6
:101DC0002BB900C0EA9591F7D0CF0F931F93CF9313
:101DD000DF93EC0110E000E090914A0190171106AA
:101DE00009F06CF40E949A0E8C8190E0019681704B
:101DF00099278C83DF91CF911F910F9108952091A6
:101E00004801A801420F511D9A01220F331F240FD0
:101E1000351F2B5A3C4F4C81609107058091060578
:101E200096959017110651F04CF0442349F04091DB
:101E300008050E944B080F5F1F4FCECF4423B9F314
:101E400040E0F7CF8F929F92AF92BF92CF92DF92F6
:101E5000EF92FF920F931F93CF93DF93EC014C818E
:101E6000042F10E09801D8010E9473349B01AC014B
:101E70000E943E344B015C01E0E2F0E0E01BF10B1C
:101E8000A5E5B0E0AC019B010E943E346B017C01F2
:101E90009F01DF010E946A309B01AC010E9449341E
:101EA0009B01AC01280D391D4A1D5B1DC701B60100
:101EB0000E945134F22E822F90E039E23F1560F1FA
:101EC00043E0249F9001112435952795122F1095FA
:101ED00000E085E5E82EEF1880914A01081758F1D7
:101EE0000E949A0E9C8181E0992319F0903219F496
:101EF0008FEF8093450180914501890F8C83DF919D
:101F0000CF911F910F91FF90EF90DF90CF90BF90F6
:101F1000AF909F908F90089525E530E0B901681B40
:101F2000790B9B01220F331F260F371F37FFCCCFB2
:101F30002F5F3F4FC9CF8E2D01FD8F2D209148017E
:101F4000622F600F7727771F9B01220F331F260F09
:101F5000371F2B5A3C4F412F609107050E944B08B9
:101F60000F5FBACFEF92FF920F931F93CF93DF9340
:101F7000EC018C81811109C081E08C8310925303A4
:101F800092E09093440180934301809148019091A5
:101F9000490123E0829FF0011124EB5AFC4F89177D
:101FA00068F110E003E060914A01161768F10E94A1
:101FB0009A0E8091430120915303280F20935303DD
:101FC00090914401980F90934401191654F4022EF5
:101FD000000C330B40914A014150550B2417350733
:101FE00034F0819580934301813009F41C82DF91A4
:101FF000CF911F910F91FF90EF9008951182108261
:1020000012828F5F3396CBCFE12EF12C70E0C701A7
:102010000E94503020914801820F482F50E02091BB
:102020005303022E000C330BE216F306BCF0209192
:102030004401022E000C330B2E153F057CF0809FCF
:10204000900111242B5A3C4F4091080560910705DF
:10205000809106050E944B081F5FA5CFFA01EE0F85
:10206000FF1FE40FF51FEB5AFC4F11821082128202
:10207000F3CF8F929F92AF92BF92CF92DF92EF9267
:10208000FF920F931F93CF93DF93EC018A81BB24C0
:10209000BA9480FD02C0BB24B394A0904A018C8105
:1020A000811109C081E0B81228C08FEF8A0D80939A
:1020B000520381E08C83F12CE12C46E3942EEA1448
:1020C000F8F00E949A0E8091520391E0B9125FC01D
:1020D000811158C080914A018150809352031C8223
:1020E000DF91CF911F910F91FF90EF90DF90CF90F4
:1020F000BF90AF909F908F90089510925203D9CFC8
:10210000009148010E0D1F2D111DC801880F991F48
:10211000080F191F0B5A1C4FF801118210821282EE
:1021200034E0C32ED12C812C80915203880D87334B
:102130002CF1692D0E944230892F082E000C990B3A
:102140008E159F0591F4809108058C9DA0018D9DB1
:10215000500D1124559547955595479598016091D7
:102160000705809106050E944B088B0CF1E0CF1A01
:10217000D108D1F68FEFE81AF80AA1CF87FFDDCF9B
:102180008A0DDBCF815080935203BC82A9CF90E0AF
:10219000019660914A0170E00E9450308093520392
:1021A0008C839ECFEF92FF921F93CF93DF93EC012E
:1021B00010E0EE24EA94F12C60914A01161770F0B9
:1021C0000E949A0E9A818C8190FF27C08F5F8C832A
:1021D000DF91CF911F91FF90EF90089520914801DA
:1021E000422F410F5527551FCA019A01220F331F55
:1021F000280F391F2B5A3C4F70E0C7010E94503006
:10220000962F8C814091080560910705199F800DDC
:1022100011240E944B081F5FCFCF8150D8CF9091DF
:10222000050590FF14C0909148012091490133E0C9
:10223000939FF0011124EB5AFC4F921710F00C946D
:102240009A0E8183608342839F5F3396F6CF089511
:102250000F931F93CF93DF9300D00F92CDB7DEB7CC
:102260008C018091540381110AC09E012F5F3F4F62
:1022700048E76FEF0E944B088A8180935403F8016E
:102280006481613069F08091540340E0662361F01D
:1022900040E0623011F44091540380E060E004C0FB
:1022A0006091540340E080E00E940F11F8018481A6
:1022B00090E0019663E070E00E94503084830F90BC
:1022C0000F900F90DF91CF911F910F910895CF93B1
:1022D000DF9300D00F92CDB7DEB79091050590FF48
:1022E0000AC09E012F5F3F4F0E944B084B816981BE
:1022F0008A810E940F110F900F900F90DF91CF9164
:102300000895CF93DF93EC01E5E0F5E0438162812E
:102310008C810E9467118C818F5F8C83DF91CF91BC
:102320000895CF93DF93EC01EC81F0E0E453FC4F90
:102330004491E5E0F5E0628181810E9467118C8122
:102340008F5F8C83DF91CF9108959F92AF92BF9260
:10235000CF92DF92EF92FF920F931F93CF93DF9371
:102360007C015B016A018091D70201E010E08A30B4
:1023700010F40AE010E0C1E0D0E0F894B501C70124
:10238000F6010995982E0E94FB09911004C0219630
:102390000C171D076CF4892DDF91CF911F910F91C0
:1023A000FF90EF90DF90CF90BF90AF909F900895F7
:1023B000CC9F9001CD9F300D300D112490E080E036
:1023C00045E34A95F1F70000019682179307C1F79C
:1023D000D4CF8091B502811110C08091D800806166
:1023E0008093D8008AE18A95F1F700C08091D900E6
:1023F00080FF0AC081E08093B50281E09091B50230
:10240000913009F080E0089582E08093B5020E9447
:10241000F20510924505F1CF0E94E911882351F091
:10242000E0911205F0911305309721F00190F081B1
:10243000E02D099480E008950F931F930E94E91105
:10244000882321F01F910F910C9491070E9491070E
:102450000091D8021091D9022091DA023091DB026A
:10246000600F711F821F931F1F910F910895CF92CC
:10247000DF92EF92FF920F931F93CF93DF936C0144
:102480007B0164E670E088E70E945D2DEC0197FD1A
:1024900012C010E000E0F601E00FF11F849164E645
:1024A00070E00E94D72DEC01892B29F40F5F1F4F9C
:1024B0000E151F0581F70E945A2ECE01DF91CF9194
:1024C0001F910F91FF90EF90DF90CF900895809132
:1024D0000E0590910F05911103C091E08927089591
:1024E000882369F062E070E08EEC94E00E9437127D
:1024F000892B19F080910E05089510920E05809198
:102500000E05EBCFCF93C0910E0580910F05882368
:10251000D1F00E949107605A75418F4F9F4F609391
:102520000A0570930B0580930C0590930D05C1115E
:1025300008C062E070E08CEC94E00E943712892BB6
:1025400029F0C0910E058C2FCF91089581E08093E2
:102550000E05F7CF4F925F926F927F928F929F926C
:10256000AF92BF92CF92DF92EF92FF920F931F93A1
:10257000CF93DF93FC016280448081E08483ECECA4
:10258000F3E07490EBE4F4E0E491812C75E0972E95
:10259000F2E0CF2EDD24D394AA24AA94B12C5524A2
:1025A0005A94E7190E2F10E080914A01881690F096
:1025B000DF91CF911F910F91FF90EF90DF90CF901F
:1025C000BF90AF909F908F907F906F905F904F9053
:1025D0000C949A0EE82CF12C82E0861568F09E9CF3
:1025E000F0019F9CF00D1124E950FC4F80910605ED
:1025F0008083809107058183411023C09E9CF00158
:102600009F9CF00D1124E950FC4F138212822091FF
:102610004801C701820F911D9C01220F331F280F13
:10262000391F2B5A3C4F9E9CF0019F9CF00D1124AA
:10263000E950FC4F4281618180810E944B08839464
:10264000B3CF9E9CE0019F9CD00D1124C950DC4F5C
:102650008B818823E9F081508B83859DC0011124F3
:102660006C8170E00E942230FB01FF27E453FC4F95
:102670008491E82FE719E59DC0011124B8010E945B
:10268000223080910805689FB00111247A83BFCF62
:102690000E94FC3020910805269521582C9DA00110
:1026A0002D9D500D1124452F5527841795070CF0AB
:1026B000AECF82E0861588F40E94FC30B5010E94FE
:1026C000503088830E94FC30209107052695622FA8
:1026D00070E00E945030280F29839E9CF0019F9C3F
:1026E000F00D1124E950FC4F128280910805893CBD
:1026F00058F088EC9E9CF0019F9CF00D1124E9504D
:10270000FC4F8483838383CF8431A0F784E1F2CFAD
:10271000CF92DF92EF92FF926B017C010E9435080D
:10272000B701A60188E090E0FF90EF90DF90CF9096
:102730000C94FD33AF92BF92CF92DF92EF92FF9253
:102740000F931F93CF93DF9300D00F92CDB7DEB7D7
:10275000182FF62E042FE22E9091050590FF3AC017
:10276000E92FE695AE2FB0E0A252BE4F8C91809338
:102770004F039E7F9230E1F59E012F5F3F4F812FE7
:102780000E944B084B8169818A810E940F118091C0
:102790000605811308C0809107058F1104C0809140
:1027A0000805801729F080915103826080935103BE
:1027B00010930605F092070500930805EE2051F0EE
:1027C00060910505709106058091070590910805B7
:1027D0000E9488130F900F900F90DF91CF911F915F
:1027E0000F91FF90EF90DF90CF90BF90AF90089542
:1027F000823019F400910805CACF863019F410917F
:102800000605C5CF8930D9F3893109F6E9518E2FF4
:102810008170D82EE695F0E0E953FC4FA590B49076
:10282000C12CBB2460914A01C61618F00E949A0E72
:10283000AECF2C2D30E0A29EC001A39E900DB29E83
:10284000900D112470E00E942230812FD11013C00E
:10285000860F40914801420F532F511D9A01220FBC
:10286000331F240F351F2B5A3C4F402F6F2D0E94D2
:102870004B08C394D7CF861BECCFE5E0F5E043814E
:1028800021E1421B08F440E021E0628181810C9447
:102890009A13E5E0F5E0438121E1420F08F44FEFA0
:1028A00021E0628181810C949A13E5E0F5E0628178
:1028B00021E1621B08F460E021E0438181810C94F6
:1028C0009A13E5E0F5E0628121E1620F08F46FEF11
:1028D00021E0438181810C949A13E5E0F5E0818148
:1028E00021E0438162818A500C949A13E5E0F5E07F
:1028F000818121E043816281865F0C949A138091EB
:102900000905882319F08150809309056091050518
:102910007091060580910705909108050C94881325
:1029200080910905833018F48F5F809309056091C9
:1029300005057091060580910705909108050C9496
:102940008813E5E0F5E083E0808311828FEF8283D6
:1029500088E783831482AFE4B3E012968C911297D8
:10296000836012968C9360817181828193810C9433
:102970008813CF9384E090E00E94D733C82F82E27F
:1029800090E00E94D733982F8C2FCF9108951F93FA
:10299000CF93DF9300D000D0CDB7DEB74091BE0219
:1029A0005091BF026091C0027091C1022FB7F8949C
:1029B0008091170590911805A0911905B0911A05FD
:1029C0002FBF841B950BA60BB70B11E08436910526
:1029D000A105B10570F10E941C126E5F7F4F8F4FF1
:1029E0009F4F69837A838B839C838091150190919B
:1029F00016018E539D4F4091140150E04530510512
:102A000010F044E050E0BE016F5F7F4F0E942F3115
:102A100082E090E00E94AC2F182F882351F00E9492
:102A200091076093BE027093BF028093C00290939F
:102A3000C102812F0F900F900F900F90DF91CF91D7
:102A40001F910895CF93DF93CDB7DEB728970FB6C8
:102A5000F894DEBF0FBECDBF85E0E5E0F5E0DE0116
:102A6000119601900D928A95E1F780914F03909114
:102A70005003A09151038E839F83A887288540919E
:102A8000D3025091D4026091D5027091D6023FB723
:102A9000F8948091170590911805A0911905B091AF
:102AA0001A053FBF841B950BA60BB70B8436910507
:102AB000A105B10510F4222319F180911D01909117
:102AC0001E018E539D4F40911C0150E0493051052D
:102AD00010F048E050E0BE016F5F7F4F0E942F3141
:102AE00083E090E00E94AC2F882369F00E94910758
:102AF0006093D3027093D4028093D5029093D60250
:102B00001092510381E028960FB6F894DEBF0FBEF5
:102B1000CDBFDF91CF910895EF92FF921F93CF9396
:102B2000DF9300D000D00F92CDB7DEB77B0190E0ED
:102B300080E00E94AC2F182F882309F487C04091B1
:102B4000070150E04115510511F041E050E060915E
:102B50000801709109016E537D4FCE0105960E94C8
:102B60002F314091BA025091BB026091BC0270912A
:102B7000BD022FB7F8948091170590911805A09188
:102B80001905B0911A052FBF841B950BA60BB70B27
:102B900084369105A105B10540F483EC92E00E94D2
:102BA000DB059D81891709F451C081E090E00E9406
:102BB000AC2F81111AC010E08091B6029091B7023B
:102BC000A091B802B091B902F70180839183A283EA
:102BD000B383812F0F900F900F900F900F90DF9184
:102BE000CF911F91FF90EF90089540910F0150E019
:102BF0004530510510F044E050E0609110017091B3
:102C000011016E537D4FCE0101960E942F3183EC4E
:102C100092E00E94DB059D818913CDCF0E94910730
:102C20006093BA027093BB028093BC029093BD0282
:102C300089819A81AB81BC818093B6029093B7025F
:102C4000A093B802B093B90211E0B6CF8091C3024D
:102C50009091C402A091C502B091C60289839A8363
:102C6000AB83BC831111E4CFA7CF69EE7EEF90E078
:102C700080E00E94093460E082E090E00E94EB3343
:102C800060E083E090E00E94EB331092A702109284
:102C9000A8021092A9021092AA0260E084E090E0DB
:102CA0000E94EB3360E082E290E00E94EB3360E050
:102CB00085E090E00E94EB3360E086E090E00E94C7
:102CC000EB336FEF87E090E00E94EB3340E050E0A1
:102CD000BA0188E090E00E94FD3360E08DE090E072
:102CE0000E94EB3340E050E0BA0188E190E00E949E
:102CF000FD3360E087E190E00E94EB3340E050E07C
:102D0000BA018CE190E00E94FD3370E060E080E267
:102D100090E00E94093440E050E0BA0188E190E080
:102D20000E94FD3340E050E0BA018FE090E00E9445
:102D3000FD3340E050E0BA0183E190E00C94FD33B4
:102D40001F920F920FB60F9211242F933F934F9320
:102D50005F936F937F938F939F93AF93BF93EF9303
:102D6000FF938091E10082FF09C08091E20082FF21
:102D700005C08091E1008B7F8093E1008091DA00B3
:102D800080FF24C08091D80080FF20C08091DA00AD
:102D90008E7F8093DA008091D90080FF9DC080E112
:102DA00089BD82E189BD09B400FEFDCF81E0809339
:102DB000450580912005811109C00E94F2050E94FD
:102DC000BD068091E20084608093E2008091E10082
:102DD00080FF17C08091E20080FF13C08091E20065
:102DE0008E7F8093E2008091E20080618093E20018
:102DF0008091D80080628093D80019BC85E08093D0
:102E000045058091E10084FF2BC08091E20084FFA2
:102E100027C080E189BD82E189BD89B5982F917075
:102E200080FFFBCF8091D8008F7D8093D800809168
:102E3000E1008F7E8093E1008091E2008F7E80939D
:102E4000E2008091E20081608093E200809146057B
:102E5000882309F447C084E08093450580914505A7
:102E60008091E10083FF27C08091E20083FF23C0AF
:102E70008091E100877F8093E10082E080934505A7
:102E8000109246058091E1008E7F8093E100809151
:102E9000E2008E7F8093E2008091E2008061809367
:102EA000E20042E060E080E00E948B068091F0004A
:102EB00088608093F000FF91EF91BF91AF919F9157
:102EC0008F917F916F915F914F913F912F910F90D3
:102ED0000FBE0F901F90189519BC109245051092C7
:102EE000200574CF8091E30087FD93E09093450522
:102EF000B5CF78941F921FB61F9211248F939F9382
:102F0000AF93BF938091170590911805A091190573
:102F1000B0911A050196A11DB11D809317059093DC
:102F20001805A0931905B0931A05BF91AF919F9111
:102F30008F911F901FBE1F9018959C014FB7F8945A
:102F40008091170590911805A0911905B0911A0567
:102F50004FBF821B930B08952FB7F89480911705EC
:102F600090911805A0911905B0911A052FBF0895E9
:102F70000E94AC179C019091450380914603982BC9
:102F800021F03093420320934103909147038091B5
:102F90004803982B21F03093400320933F03E091A6
:102FA0001205F0911305309749F082E080934303B6
:102FB0000480F581E02D83E493E00994089590E086
:102FC00080E00E94120890E080E00E94FC071092CE
:102FD000A4020E94A00D86E0E3E4F3E0DF011D926D
:102FE0008A95E9F710923D0310923C0310923E033C
:102FF0000C94B8176093FB027093FC028093FD025F
:103000009093FE020C94DF170F931F9341E050E062
:1030100060E070E004C0440F551F661F771F8A955B
:10302000D2F7CB01BA01609570958095909500918B
:10303000FB021091FC022091FD023091FE02602300
:103040007123822393231F910F910C94FA1790916F
:1030500083028095892380938302282F277091F41F
:10306000282F082E000C330B9217130659F090915D
:103070001C0592FD07C08595859585950E940418CD
:10308000109283020895CF93C0911C05C2FB99272B
:1030900090F9981799F080FBC2F9C0931C056091D4
:1030A0001B0584E090E00E94EB336C2F82E290E0FD
:1030B0000E94EB3382E0CF910C942718CF910895B2
:1030C0000F931F9341E050E060E070E004C0440FB4
:1030D000551F661F771F8A95D2F78091FB0290914A
:1030E000FC02A091FD02B091FE028A019B01082B17
:1030F000192B2A2B3B2BC901B8011F910F910C945E
:10310000FA176093A7027093A8028093A902909384
:10311000AA020C94DF171092A50280914B01EEE0F9
:10312000F2E0882359F080911B0587FF07C08EE1EC
:10313000DF011D928A95E9F70C94DF1786E0F8CF3E
:103140001F93CF93DF93CDB7DEB7AA970FB6F8944E
:10315000DEBF0FBECDBF87E495E02091F100FC01FA
:103160002193CF01F5E08F349F07B9F7809148058F
:10317000833009F470C0B8F4813009F447C082305C
:1031800009F4B1C08091E80083FF7EC280914705B9
:10319000909148059A3008F077C2E92FF0E0EC579B
:1031A000FB4C0C9464308A3009F48CC08B3009F4E9
:1031B0006FC0893039F780914705813219F78091C6
:1031C0004B0590914C050297E8F68091E800877FC7
:1031D0008093E8008091E80082FF38C09091F3006E
:1031E0008091F200029731F48091F100813011F06A
:1031F000863021F48091F100809322058091E800CF
:103200008B778093E8000E946C06BCCF80914705C5
:10321000813A09F0B7CF8091E800877F8093E8007A
:1032200080914B0590914C05892B61F460E283E21B
:1032300095E070E00E941E078091E8008B778093F4
:10324000E800A0CF60E090E080E0F3CF80914505FA
:103250008111C0CF97CF80914705813A09F092CF75
:1032600080914B0590914C05892B09F08BCF809173
:10327000E800877F8093E8008091E80080FFFCCF22
:1032800080914B018093F1008091E8008E77B9CF57
:1032900080914705813209F075CF80914B0590915F
:1032A0004C05892B09F06ECF8091E800877F8093D1
:1032B000E8000E946C068091490580934B010E94B2
:1032C0008B1860CF80914705813209F05BCF8091E8
:1032D000E800877F8093E8000E946C0680914A0591
:1032E000809321054FCF80914705813A09F04ACF5D
:1032F0008091E800877F8093E8008091E80080FF5C
:10330000FCCF80912105BECF803899F0823809F03A
:10331000BBC180914B058F70873008F0B5C1809399
:10332000E9008091EB0085FB882780F91092E90085
:1033300006C080914305909144059111826090915F
:10334000E800977F9093E8008093F1001092F100DD
:103350008091E8008E7794C1882309F482C182307D
:1033600009F092C180914905811185C180914B0579
:103370008F702FEF280F263008F086C18093E90068
:103380002091EB0020FF77C1933031F48091EB0066
:1033900080628093EB006FC19091EB0090619093FD
:1033A000EB0021E030E001C0220F8A95EAF720937C
:1033B000EA001092EA008091EB008860EACF811168
:1033C00063C1109149051F778091E3008078812BBC
:1033D0008093E3008091E800877F8093E8000E945B
:1033E0006C068091E80080FFFCCF8091E30080684C
:1033F0008093E30082E0111183E08093450544C18E
:103400008058823008F040C18091490590914A056A
:103410008C3D23E09207A1F583E08A838AE28983C9
:103420004FB7F894DE01139620E03EE051E2E32F1F
:10343000F0E050935700E49120FF03C0E295EF7055
:103440003F5FEF708E2F90E0EA30C0F0C7968D930B
:103450009D932F5F243159F74FBF8091E800877FFC
:103460008093E8006AE270E0CE0101960E941E0798
:103470008091E8008B778093E80006C1C096E7CF83
:1034800040914B0550914C05292F332723303105AE
:1034900009F444C078F52130310509F46FC08BE39D
:1034A00090E0E6ECF5E02230310509F0EDC0209126
:1034B000E800277F2093E80020914D0530914E05CC
:1034C0008217930708F49C0140E02115310509F0AB
:1034D00064C0411162C08091E80082FDC9CF809133
:1034E0004505882329F2853019F28091E80083FF91
:1034F000F2CFBECF21323105A9F12232310509F0D8
:10350000C3C04115510509F443C04130510509F0CC
:10351000BBC086EB90E0E0EDF4E0C9CF99278130A5
:103520009105C1F0009759F0029709F0ADC0E3E1B1
:10353000F6E0E4918E2F90E0E3E1F6E007C0E3E3EC
:10354000F6E0E4918E2F90E0E3E3F6E0009709F4D3
:103550009BC0ADCFE1E2F6E0E4918E2F90E0E1E296
:10356000F6E0F4CF4115510571F04130510509F0F5
:103570008BC089E090E0E1EFF5E099CF82E190E047
:10358000E1E0F6E094CF89E090E0E8EDF5E08FCF60
:1035900080E490E0E6E8F5E08ACF80914505882355
:1035A00009F466CF853009F463CF8091E80083FD8C
:1035B0005FCF8091E80082FD8ECF8091E80080FF90
:1035C00084CF9091F3008091F2002115310519F01C
:1035D0008830910550F041E0089709F040E0809173
:1035E000E8008E778093E80070CF44914093F1001B
:1035F0003196215031090196E8CF803809F044C056
:103600008091E800877F8093E80080914605809351
:10361000F1009ECE811138C0109149051230A0F5FD
:103620008091E800877F8093E800109346050E9410
:103630006C06112311F084E005C08091E30087FD42
:10364000FACF81E08093450542E061EC81E00E9481
:103650008B0642E261EC82E00E948B068091450578
:1036600013C080914905813079F481E0933009F0ED
:1036700080E0809344051092E9008091E800877F04
:103680008093E8000E946C068091E80083FF0AC0E6
:103690008091E800877F8093E8008091EB00806252
:1036A0008093EB00AA960FB6F894DEBF0FBECDBF95
:1036B000DF91CF911F9108951F920F920FB60F9235
:1036C00011242F933F934F935F936F937F938F9327
:1036D0009F93AF93BF93CF93DF93EF93FF93D091DB
:1036E000E900DF708091EC00C82FC17080FDC0E858
:1036F0001092E9008091F000877F8093F000789429
:103700000E94A0181092E9008091F00088608093D8
:10371000F000CD2BCF70C093E900FF91EF91DF91C6
:10372000CF91BF91AF919F918F917F916F915F9159
:103730004F913F912F910F900FBE0F901F901895B2
:10374000882379F19CEF980F913A38F4682F8CE038
:1037500092E00E949D070C94A00D90E2980F983083
:1037600050F4877091E001C0990F8A95EAF7892F8C
:103770000E94E50BF0CF9BE5980F933020F490E08A
:1037800080E00C94120898E5980F973120F490E0AF
:1037900080E00C94FC078D3E20F00E94E4080C941D
:1037A000B8170895CF93C82F882309F46FC08CEF02
:1037B0008C0F813AC0F580914B01882311F18091E3
:1037C0001B0587FF1EC0EC2FE695E695E695F0E019
:1037D000E45FFD4F828190E04C2F477021E030E0A4
:1037E00002C0220F331F4A95E2F782239323892BCD
:1037F00091F06C2F8CE092E00E949D070E94A00D3A
:103800000AC0EEE0F2E084E192E02191C21789F370
:103810008E179F07D1F76C2F8CE092E00E94C707AC
:10382000CF910C94A00D80E28C0F883068F4C770A3
:1038300021E030E001C0220FCA95EAF78091A5028D
:10384000822B8093A502ECCFEBE5EC0FE33040F444
:10385000F0E0E756FE4F808190E0CF910C94120883
:10386000E8E5EC0FE73150F4F0E0EE0FFF1FE4560F
:10387000FE4F80819181CF910C94FC07CD3E30F0BA
:103880008C2F0E949F09CF910C94B817CF91089567
:103890000F931F93CF93DF93C62FD42F022FFC01DA
:1038A00082818823A1F0609351050E94AC17909308
:1038B000500580934F05C77081E001C0880FCA95FD
:1038C000EAF7DF91CF911F910F910C94FC0D80913D
:1038D0005105681338C080914F05909150050E94A2
:1038E0009D17883C910578F510E21D0FCD17B9F0B2
:1038F00080E28C0F883040F4C77081E001C0880FEF
:10390000CA95EAF70E94F50D183048F481E09D2F22
:10391000977001C0880F9A95EAF70E94FC0D802FDE
:103920000E94D21B802F0E94A01B183098F4D770E1
:1039300081E001C0880FDA95EAF7DF91CF911F91FE
:103940000F910C94F50DC77081E001C0880FCA95E6
:10395000EAF7F3CFDF91CF911F910F9108950E9465
:10396000E91181110C94AC170E941C12CB0108952F
:1039700060910505669570E04BE050E088E391E0CA
:103980000E941531892B19F481E0809350030E9425
:10399000AF1C90934A038093490380915103846044
:1039A0008093510308959091050590FF3BC091705D
:1039B00081112EC092609093050580915103816022
:1039C00080935103662351F06091050570910605BF
:1039D00080910705909108050E9488136091050564
:1039E000669570E04BE050E088E391E00E9415316D
:1039F000892BA9F00E942E0881E080934C0320E0DF
:103A00004091080560910705809106050C949A1372
:103A10008B3210F09465CFCF880F982BCCCF0E94BB
:103A2000B81CEACF0895809105058695815009F468
:103A30008AE261E00C94D31C8091050586958F5F26
:103A40008B3208F081E061E00C94D31C9091050565
:103A500090FF07C09695981720F0961710F40C94D5
:103A60001C1D61E00C94D31C4F925F926F927F9269
:103A70008F929F92AF92BF92CF92DF92EF92FF927E
:103A80000F931F93CF93DF9300D000D00F92CDB749
:103A9000DEB77C01FC0183819481892B39F0108190
:103AA000D180812F8D218F3F09F0FBC40F900F90A3
:103AB0000F900F900F90DF91CF911F910F91FF907A
:103AC000EF90DF90CF90BF90AF909F908F907F90BE
:103AD0006F905F904F9008950E94F60B082F682F0B
:103AE00089819A810E94910CE12FF0E026E0D29E1C
:103AF000E00DF11D112430E3039FE00DF11D1124B1
:103B0000EE0FFF1FE455FF4F05911491F7018281DD
:103B1000882391F1C80190568115F0E29F0728F0A3
:103B2000905E8115904108F067C0C801992720E296
:103B30008C33910520F4FC01E35AFE4F20811F9243
:103B40002F939F938F93F70180811F928F93818191
:103B50001F928F938CE491E09F938F931F9288E143
:103B60008F938FEF92E09F938F930E9438310FB61F
:103B7000F894DEBF0FBECDBF043F3CE5130709F448
:103B80009EC0E0F5093D9CE5190709F494C00A3D83
:103B9000ECE51E0709F49FC0083DFCE51F07E1F5B1
:103BA00026E241EE61EEC7010E94481C809183022B
:103BB000877009F47BCFF7018281882309F476CFDF
:103BC00080911C0582FD72CF82E00F900F900F90C4
:103BD0000F900F90DF91CF911F910F91FF90EF9079
:103BE000DF90CF90BF90AF909F908F907F906F901D
:103BF0005F904F900C942718C80199CF063F2CE591
:103C0000120709F464C008F45EC027E245EE66EED0
:103C1000073F8CE5180739F2F7018281882309F400
:103C200051C4109251050430FDE51F0708F056C03D
:103C30000B3F2CE5120730F4C80182509C45449795
:103C400008F056C00E94B91490931C0580931B0580
:103C500001319CE5190709F421C108F09FC0093022
:103C6000FCE51F0709F404C108F06CC005303CE511
:103C7000130709F4F5C008F052C003309CE519079A
:103C800009F4E4C008F0E8C080911B0581600230AF
:103C90001C4509F4DEC060911B0510911C0584E0F1
:103CA00090E00E94EB33612F82E290E00E94EB33C0
:103CB0000E948B187BCF27E245EE65EE74CF26E29B
:103CC00041EE60EE70CF27E245EE64EE6CCF26E267
:103CD00041EE62EE68CF28E241E0EFCF02363DE5EB
:103CE000130709F4AFCF063A8DE5180709F4AACFF8
:103CF00006312CE5120709F0F4C38091A5028A7AF7
:103D000091E009F490E090932C0269E2811165E35F
:103D10008CE092E00E94C7070E94A00D47CF8091DF
:103D20001B05806207302CE5120709F492C08091D0
:103D30001B05806108301C4508F48BC080911B0571
:103D4000806487C00D308CE5180709F49BC098F497
:103D500080911B058E7F0B30ECE51E0709F479C0BE
:103D600080911B058C600C301C4508F472C080915A
:103D70001B058D7F6EC080911B058F7E0F302CE55B
:103D8000120709F466C080911B05877F00311C452E
:103D900008F45FC080911B058F7D5BC00E3F8CE5F2
:103DA000180709F477C050F50531ECE51E0709F452
:103DB0007FC098F480911B05837F03312CE51207A7
:103DC00009F447C008F46EC00E948B1890911B053F
:103DD000892F97FB87F980583CC00C3F8CE518076A
:103DE00009F442C008F052C080911C0581600B3F6D
:103DF0001C4509F050CF80931C054DCF0230FDE5E6
:103E00001F0709F461C090F480911C058C7F011597
:103E10003DE5130781F390F180911C05982F909553
:103E200091708E7F892B90FB81F9E5CF02369DE55D
:103E3000190709F44FC0063AEDE51E0709F451C011
:103E400003301D4509F027CF60E03FC080911B057E
:103E5000826080931B051FCF80911B058460F9CF82
:103E600080911B058860F5CF80911C058260C3CFCF
:103E70000E948B1880911B058068EBCF80911C05F8
:103E80008360B9CF80911B058B7FE3CF80911C05A8
:103E90008E7FB1CF80911C058D7FADCF80911B05AA
:103EA0008F7BD7CF0E948B1880911B058F77D1CF46
:103EB00080911B0582FB992790F921E0922790FBC6
:103EC00082F990FB83F9C5CF61E08EE090E00E941B
:103ED000EB33E1CE90911B05892F8F7E94FF80619B
:103EE000B8CF90911B05892F8E7F90FF8160B1CF55
:103EF00081608093050561E086950E94D31C56CEB3
:103F000043E15DE16CE17DE10E9428084FCE4CE188
:103F10005DE163E17DE1F8CF46E754E16DE674E1F0
:103F2000F3CF45E554E161E674E1EECF4DE354E1B2
:103F300069E474E1E9CF49E454E16DE374E1E4CF6D
:103F400040E954E16FE774E1DFCF61E081E0D5CF74
:103F500065E082E00E94261D29CE68E086E0FACF67
:103F600064E18FE0F7CF67E185E1F4CF62E289E1B8
:103F7000F1CF61E083E2C1CF0E948B18EFEFF4E351
:103F80002CE0E150F0402040E1F700C000000E942A
:103F9000800781E0C6C280E0C4C2812F902F0E94BA
:103FA000680CD82ED1C2212F2F70C22E107F19F08D
:103FB000C29420EFC222DD20B9F0CC2069F080E26B
:103FC000800F883010F0811009C08091A502C82AA6
:103FD000C092A5020E94A00D802F4BC08091A40228
:103FE000C82AC092A402F6CF802F0E94A01BCC202A
:103FF00009F441C0005E083010F0811004C08C2D1F
:104000000E94E50B06C0C0948091A402C822C09211
:10401000A4020E94A00D2FC0312F3F70C32E107F2D
:10402000103219F0C29490EFC922882089F081E003
:10403000881609F488C0DD2009F492C0992009F49B
:1040400088C0F701858180FFC7CF8F70858381C0CD
:1040500020911C0522FF54C0DD2009F44AC0CC2069
:1040600039F08091A502C82AC092A5020E94A00D35
:1040700080E00E94D21BEA2DE850FF0B349710F429
:104080000E940C12BB20A9F08091830280FD11C018
:10409000F70112828595859585950E946018C70164
:1040A0000E94341D809183028595859585950E9497
:1040B000041885E0F701DE01119601900D928A95B2
:1040C000E1F789819A810E94680C9A81E981F0E088
:1040D00026E0929FE00DF11D112430E3839FE00D57
:1040E000F11D1124EE0FFF1FE455FF4F85919491B0
:1040F000DDCC80E00E94A01BCC2009F4BCCF7FCF98
:10410000DD20A1F09091A6028C2D892B911003C087
:104110000E94FC0DB0CFE1E09E12FACF22FDABCFA2
:10412000981709F4A8CF8093A602A5CF911006C0D6
:104130000E94DF0B8C2D0E94F50D9DCFF1E09F16A4
:1041400009F499CFF5CFDD2031F025E0291508F4E9
:1041500092CF8C2DDDCF34E0391508F48CCFEACF27
:10416000992041F3F9E38F1295C12FEF37EE83E0E9
:10417000215030408040E1F700C000008BC1812F0A
:1041800086958695837061F0813009F074CFC801FF
:104190009370D11002C090E080E00E94FC076BCFCA
:1041A000C8019370D11002C090E080E00E94120814
:1041B00062CF802FDD2029F00E949F090E94B8174E
:1041C0005ACF0E94E408FACF812F837009F066C0AD
:1041D000D11051CF802F829586958770880F880FD8
:1041E000602F6F70462E512C712C612C082E04C04C
:1041F000440C551C661C771C0A94D2F740E050E032
:10420000BA0104FF0FC04FE050E060E070E004C06E
:10421000440F551F661F771F8A95D2F7409550951A
:1042200060957095812F869586958370823019F1FF
:10423000D8F40091A7021091A8022091A902309110
:10424000AA02813069F04429552966297729CB01D2
:10425000BA0160237123822393230E9481180BCF1C
:10426000402A512A622A732ACB01BA01642975298E
:1042700086299729F2CF4429552966297729009163
:10428000A7021091A8022091A9023091AA02CB01A5
:10429000BA016027712782279327DFCF8695DD201B
:1042A00011F0812F8170882309F4E5CE802F82954B
:1042B00086958770880F880F602F6F70462E512C5F
:1042C000712C612C082E04C0440C551C661C771CF4
:1042D0000A94D2F740E050E0BA0104FF0FC04FE06B
:1042E00050E060E070E004C0440F551F661F771F68
:1042F0008A95D2F74095509560957095812F869557
:1043000086958370823019F1D8F40091FB021091E8
:10431000FC022091FD023091FE02813069F04429B7
:10432000552966297729CB01BA016023712382239D
:1043300093230E94FA179FCE402A512A622A732A99
:10434000CB01BA016429752986299729F2CF44291E
:104350005529662977290091FB021091FC022091D2
:10436000FD023091FE02CB01BA016027712782273E
:104370009327DFCF1F70DD2029F0812F0E94601866
:10438000802FC6CE802F0E94F50D812F0E94041829
:1043900072CE802F92EF891609F43FC0981570F005
:1043A000E0EF8E16D1F0F1EF8F1691F0DD2009F4D9
:1043B0006CC0911011CE812F8F7133C023EF821604
:1043C00099F134EF8312F2CF80911C0582FF3FC038
:1043D000812F8F71DD20D1F224C0DD20C9F084E06F
:1043E000891508F448CE1F7161E070E080E090E02C
:1043F00004C0660F771F881F991F1A95D2F7009186
:10440000FB021091FC022091FD023091FE02ADCF23
:1044100095E0991508F42FCEE6CF812F8F71D1103A
:10442000B5CF0E94601827CE60E070E0CB01DD20A0
:1044300009F47FCF1F7161E070E080E090E004C07C
:10444000660F771F881F991F1A95D2F772CFDD204C
:1044500089F01F71812F0E94601880911C0582FDD8
:1044600007C0E8E01E9FC00111248360809383028F
:10447000812FD7CF81E00E942718F1E0F91508F0CD
:10448000FACD82E00E942718F6CD992039F08933C1
:1044900009F46BCE802F0E94A01BEDCD812F8F7170
:1044A00075CF85E0DE01119601900D928A95E1F7B6
:1044B000F701228189819A8121110ECB0E94680C1B
:1044C000082F12CB0631FCE51F0709F084C080914C
:1044D0002C0269E2811165E38CE092E00E949D0765
:1044E0001BCC0B352DE5120709F453CD58F40115FB
:1044F0008CE5180709F440CD0F3D1C45A1F40E943E
:10450000351654CB0C35EDE51E0709F444CD0D35B9
:104510001D4549F480911C0582FB882780F991E0B4
:1045200089270E944318F701828110810181882325
:1045300009F433CD812F902F0E94F60BD82E682FCF
:10454000812F902F0E94910CE12FF0E026E0029F36
:10455000E00DF11D112430E3D39EE00DF11D112477
:10456000EE0FFF1FE455FF4F859194910E94570A6B
:104570008C01882EF701D280958092945FE095227D
:10458000809183028770C1F0BD2CDD20B1F0812FB6
:10459000807F803421F080E2800F883068F0809145
:1045A0001C0582FD09C082E00E94271880918302C9
:1045B0008770BB24B3948111B12CA12EA2943FE04B
:1045C000A322FBE0FA1508F456CDEA2DF0E0E257FD
:1045D000FB4C0C9464308091A50282720D3C2CE55A
:1045E000120709F4ADCC08F064C0073C9CE519073C
:1045F00009F492CCE0F5043CFCE51F0709F480CCFB
:1046000040F5033C1C4509F08ECF8091050580FFE5
:104610006FCC8E7F8093050560910505709106052E
:1046200080910705909108050E9488130E942E082A
:10463000809151038160809351033FEF80E792E0C6
:10464000315080409040E1F700C000000E949A0E77
:10465000ADCA053C9CE5190709F459CC4DE654E177
:1046600066E774E1063C1C4509F44ECC5CCF0A3C7D
:10467000FCE51F0709F45ACC70F4083C3CE513072D
:1046800009F44FCC41E654E165E574E1093C1C4571
:1046900009F43ACC48CF0B3CECE51E0709F44BCCAF
:1046A0004FE754E160E974E10C3C1C4509F42CCC63
:1046B0003ACF023D2CE5120709F452CC98F40F3C96
:1046C0008CE5180709F444CC08F43FCC003DECE538
:1046D0001E0709F442CC6EE089E0013D1C4509F457
:1046E00039CC21CF053D2CE5120709F43FCC60F40D
:1046F000033D8CE5180709F436CC61E088E1043D00
:104700001C4509F4FACB0FCF063DECE51E0709F472
:1047100030CC6AE285E20E351D4509F41BCC03CF8F
:104720001F93CF93DF9380915002807FA9F48091F3
:104730004D02882389F080918202D09151026091CC
:104740004B0270914C02A0914E02B0914F02C62FC5
:10475000C72316E0D81304C0DF91CF911F910895AD
:1047600090E0109711F0CF3F19F401968770F2CFC7
:10477000189F9001199F300D1124F901EE5AFD4F39
:1047800041814713F2CF40814613EFCF428141115F
:10479000ECCF438154814A1B5B0B483C510528F701
:1047A000809150028F70806180935002F901E95A24
:1047B000FD4F80818F70806180838BE492E00E9446
:1047C000341DDF91CF911F910C94EC0BAF92BF92EF
:1047D000CF92DF92EF92FF920F931F93CF93DF93CD
:1047E000CDB7DEB761970FB6F894DEBF0FBECDBF71
:1047F0008C0185E0F801DE011D9601900D928A95ED
:10480000E1F7F801E2808BE4A82E82E0B82E6091F7
:104810004E0270914F026115710509F432C19091F9
:104820004B0240914C02892F84238F3F09F429C108
:1048300020813181C380D480F0904D02F601E61BC7
:10484000F70BFF2009F4E8C080915002582F507FE9
:10485000E83CF10508F0ABC0511177C0FE2C4313C2
:1048600021C092131FC0E1101DC08F708061809322
:104870005002C5010E94341D80915002F8018583C9
:104880008F2D61960FB6F894DEBF0FBECDBFDF91BE
:10489000CF911F910F91FF90EF90DF90CF90BF903D
:1048A000AF900895CD2829F0822F83238F3F09F000
:1048B00003C180E0F82FF170DF2E80FF3CC08091B3
:1048C00082024091510256E0841315C02D873E8725
:1048D0008D859E850E944D0C292F22952F702230A8
:1048E000F0F0243018F59F70F1F0F8019581907F79
:1048F000D1F4D12C1EC090E0589FF001599FF00DCB
:104900001124EE5AFD4F6181361306C060812613D3
:1049100003C06281E6120FC001968770D5CF9F70E9
:1049200011F0882331F3805E883018F3C8010E94AB
:10493000341DFD2CA5CFEE2009F4A2CF80915002AA
:10494000816080935002F12C9BCF431306C09213D9
:1049500004C0F801EE2009F479C0C8010E94BF0C20
:10496000882309F1EE20F9F080915002803270F036
:1049700020914B0230914C0238872F831986DB86B9
:10498000CA868C87CE0107960E94341D86E0F80106
:10499000ABE4B2E001900D928A95E1F70E9490237A
:1049A000FF24F3946DCFC8010E94341DF9CF51113B
:1049B0000AC08BE492E00E94341D86E0F50111925A
:1049C0008A95E9F7C0CF43130FC092130DC0E110D1
:1049D0000BC0F8018583C8010E94341D86E0F501F3
:1049E00011928A95E9F74CCFC8010E94BF0C882329
:1049F000D1F2EE20C1F280915002803238F2209143
:104A00004B0230914C023A8329831B82DD82CC8297
:104A10008E83CE010196B8CFE83CF105F8F6FE2C66
:104A2000EE2009F243131FC092131DC08091500263
:104A300080FD10C0982F907F69F0F8018583903F2A
:104A400031F0982F907F905F8F70892B8583C801FC
:104A50000E94341D86E0F801ABE4B2E001900D92B3
:104A60008A95E1F70DCFC8010E94BF0C81118ECF4E
:104A700080915002816080935002C8010E94341DD1
:104A8000FFCEEE2009F48FCFC8010E94BF0CF82E94
:104A9000882309F488CF86E0F801ABE4B2E0019006
:104AA0000D928A95E1F780914B0290914C020E9401
:104AB0004D0C0E949023E4CE81E08E25FBCE1F9307
:104AC000CF93DF93CDB7DEB767970FB6F894DEBF0D
:104AD0000FBECDBF4B8B5C8B6D8B7E8B8F8B611133
:104AE0001092A4021A8A198A85E0FE017396DE01EB
:104AF0001D9601900D928A95E1F786E0FE013D96A4
:104B0000DE01179601900D928A95E1F7CE01079686
:104B10000E94E623882389F016E08091820290911A
:104B20005102891349C067960FB6F894DEBF0FBED5
:104B3000CDBFDF91CF911F91089586E0FE0137969A
:104B4000DE01119601900D928A95E1F78A859B8589
:104B5000892B11F38F81988589238F3FE9F220916A
:104B6000510230E0C9010196877099274091820275
:104B70004817190671F40E948B1810925102109276
:104B8000820286E0EBE4F2E0DF011D928A95E9F70C
:104B9000C3CF96E0929FD001939FB00D1124AE5ADF
:104BA000BD4FFE01319601900D929A95E1F78093E9
:104BB00051020E94EC0BB0CF819FC00111248E5A8C
:104BC0009D4F0E94E623882309F4ADCF8091820295
:104BD00090E0019687709927809382029ECF7F9202
:104BE0008F929F92AF92BF92CF92DF92EF92FF92FD
:104BF0000F931F93CF93DF93CDB7DEB72C970FB6EC
:104C0000F894DEBF0FBECDBF8E010F5F1F4F88E04F
:104C1000D8011D928A95E9F78CECC82E81E0D82E38
:104C2000F12CE12CAA24A394B12C26ED822E21E0B4
:104C3000922EF60181916F018F3F09F443C0F894E1
:104C4000E82FE295EF70F0E021A18F70A50102C07E
:104C5000440F551F8A95E2F7CA01922F982B91A312
:104C600092A18095892382A30E94FB0900C0E0EDF8
:104C7000F1E0712C31E021912F3F09F47DC0A22F8A
:104C8000A295AF70B0E090968C9190E02F7002C02A
:104C9000959587952A95E2F780FD6EC0832F782A37
:104CA000330F8E169F0639F7F601319780818F3FBB
:104CB00011F00E94FD0950EA5A95F1F7F801EE0D46
:104CC000FF1D70828FEFE81AF80A94E0E916F104EC
:104CD00009F0AFCF48E050E0B8018CED92E00E94BF
:104CE00022317C01892B41F088E0F801ACEDB2E083
:104CF00001900D928A95E1F71091E502E114F1041B
:104D0000E9F181E08093AD020E94AC179093AC0270
:104D10008093AB028091AB029091AC020E949D17F0
:104D2000059790F0E12FF0E0E951FD4F8091DC0212
:104D300080838091DD0281838091DE028283809175
:104D4000DF0283831092AD0281E090E0EF28D1F082
:104D50002C960FB6F894DEBF0FBECDBFDF91CF917A
:104D60001F910F91FF90EF90DF90CF90BF90AF9089
:104D70009F908F907F90089580E091CF8091AD02B9
:104D80008111C8CF0E94E911F82EE091E502882335
:104D900009F476C019861A861B861C860E2F10E031
:104DA00009511D4F8091D7028A30A0F54CE855E19A
:104DB000BE01675F7F4FC8010E94A5118823C9F11A
:104DC00047EC54E1BE01675F7F4FC8010E94A51107
:104DD000882379F142E255E1BE01675F7F4FC80148
:104DE0000E94A511882329F11092D7028091E40234
:104DF00090E044E050E0BE01675F7F4F89519D4FD6
:104E00000E94223121E02093B402892B59F5F12C24
:104E10008F2D9ECF8091AE029091AF020E949D1780
:104E2000843F914018F68091B402811112C080E055
:104E30008FCF8091D7028F3F29F08F5F8093D70269
:104E40008A30A0F20E94AC179093AF028093AE021A
:104E5000EACFFE01399684E0DF011D928A95E9F7D9
:104E60001092B402E091E402F0E0E951FD4F89852F
:104E70009A85AB85BC8580839183A283B383C8CF99
:104E8000F0E0E951FD4FF89484E0A3ECB2E001902A
:104E90000D928A95E1F783EC92E00E94DB05809306
:104EA000C2020E94FB09F894C090C702D090C802C9
:104EB000E090C902F090CA028091B0029091B102D4
:104EC000A091B202B091B302C816D906EA06FB0659
:104ED000D1F0C092B002D092B102E092B202F09250
:104EE000B3020E94E91181110EC00E949107C61AF7
:104EF000D70AE80AF90AC092D802D092D902E09201
:104F0000DA02F092DB020E94FB09F8948091D2024F
:104F1000882379F180FF0DC08091CB029091050527
:104F200080FF2AC091609093050560E086950E94FD
:104F3000D31C8091D20281FF09C020E04091CE02B3
:104F40006091CD028091CC020E949A138091D2028E
:104F500082FF06C08091D102882321F10E94B81CF3
:104F60008091D20283FF03C081E080934C031092B2
:104F7000D2020E94FB095BCF9E7F909305050E94A1
:104F80002E0880915103816080935103BFEFE0E7C9
:104F9000F2E0B150E040F040E1F700C000000E94B4
:104FA0009A0EC7CF0E942E08DBCF1F921FB61F920A
:104FB00011248F939F93AF93BF9380911605811116
:104FC00013C08091170590911805A0911905B09113
:104FD0001A054196A11DB11D8093170590931805E0
:104FE000A0931905B0931A05BF91AF919F918F912E
:104FF0001F901FBE1F901895CDB7DEB762970FB6F2
:10500000F894DEBF0FBECDBF84B7877F84BF0FB6D5
:10501000F894A89580916000886180936000109258
:1050200060000FBE80E890E00FB6F89480936100B6
:10503000909361000FBE85B7806885BF85B7806893
:1050400085BF89EF99E090930B0280930A020E943A
:10505000F2050E94BD068091E20084608093E20028
:105060007894809145058823A1F01091E9001F7084
:105070009091EC00892F817090FD80E8182B1092A0
:10508000E9008091E80083FD0E94A0181F70109332
:10509000E90082E084BD93E095BD9AEF97BD8093CF
:1050A0006E001092D8021092D9021092DA02109279
:1050B000DB020E94E911809324018091240188235E
:1050C00009F473C0109246018BE1809347010E945E
:1050D000E91181110E94BF2E809124018091240149
:1050E00094E0811190E09093E50284E0891B809325
:1050F000E40284E90E94FD0986E60E94FD0987E931
:105100000E94FD0986EC0E94FD0900ED11E056EDBC
:10511000E52E51E0F52ED8018D918D018F3F11F0D4
:105120000E94FD09E016F106B1F788E0E7EEF2E033
:10513000DF01282F1D922A95E9F7ECEDF2E0DF015F
:105140001D928A95E9F790E080E00E94E533893E60
:105150009E4F11F00E94351682E090E00E94D733F6
:105160008093EF020E94B91490931C0580931B0555
:105170000E94EF25EFE3FCE93197F1F700C0000052
:105180000E94EF250E94E911E4E08111E0E0F0E0E7
:10519000E951FD4F808181FF0CC06FEF7FEF90E000
:1051A00080E00E9409340E9480078BE180934601D1
:1051B0008CCF83E090E00E94D733682F70E090E0BE
:1051C00080E00E9481180E94E911811147C282E0AB
:1051D0008093370380E8809352050E94572D6DE03D
:1051E00070E08FE392E00E943712892BE9F58091FD
:1051F000370363E070E081FD33C28CE392E00E94EC
:105200003712892B89F56DE070E08CE292E00E9404
:105210003712892B49F50E949107605A75418F4FCB
:105220009F4F60930A0570930B0580930C05909334
:105230000D05E5E5F5E080E092E0DF019C011D92BF
:1052400021503040E1F7F0935C07E0935B078FEF6C
:105250009FEF909354058093530581E080930F0551
:1052600080930E05109238038091E60281113BC0B5
:1052700090E080E00E94E533893E9E4F21F00E943D
:1052800035160E94A11488E090E00E94DF336093FD
:105290000505709306058093070590930805809196
:1052A00051038360809351036E7F71F40E94A114B7
:1052B00088E090E00E94DF33609305057093060557
:1052C00080930705909308050E9435080E942E08D8
:1052D0008091050580FF04C060E086950E94D31C84
:1052E00081E08093E6020E94E911811102C00E94D0
:1052F000C22E85E291E0909313058093120548E158
:10530000842E912C8091450500E112E1853009F44D
:10531000E2C10E94EF25D82E81110E949107A7EECD
:10532000B2E0E0EFF2E010E000E0B02EED9081910D
:105330008E1509F4DFC18E25C12CFF24F394982F1C
:105340009F2109F4D2C10E94E911882399F0CF82EC
:10535000B886EF2081E009F480E089870E94AC17CD
:105360008160782F9B878A874F81588569858B85D7
:105370000E945F25F801E051FD4F8081F826F08200
:105380000E94E91180915003882309F464C0809140
:105390004F03E0910505E695E81BE0934B0382304F
:1053A00009F0BFC1F0E0E35AFD4FE4910E2F10E089
:1053B00031E9E32E31E1F32E80914C03882361F033
:1053C00010924C030E94AF1C90934A0380934903B0
:1053D00010924E0310924D030E94AF1CE0914903BE
:1053E000F0914A039C012E1B3F0B2F3F3F4798F53E
:1053F0002091FA022223B1F01092FA022091F802D1
:105400003091F902821B930B8F3F9F4758F4205D28
:105410003A483093F9022093F80280915103886052
:1054200080935103A0904D03B0904E03E00FF11F05
:10543000F0934A03E093490389E493E0F701099567
:1054400080914D0390914E03892B29F4AB2819F0DC
:1054500081E08093FA0280910F05882351F18091B9
:10546000390390913A030E949D17C29708F0C5C175
:1054700020915305309154052115310509F015C2CD
:1054800080910E058823A9F00E94910700910A05DA
:1054900010910B0520910C0530910D05601B710BCF
:1054A000820B930B6F3F7F4F8F4F9F4710F40E94EB
:1054B0006712D1100E94821286E0E3E4F3E0DE017D
:1054C000119601900D928A95E1F7F0904503E090D6
:1054D0004603109147030091480310924503109230
:1054E000460310924703109248038F2D8E2909F42A
:1054F00048C080914103909142030E949D179C01F6
:1055000090913D03992309F4CDC225313105C8F1AD
:105510009F3F19F09F5F90933D03FF2059F00E9439
:105520007F099FEF1F140CF491E0899F802D1124B7
:1055300080934503EE2059F00E947F099FEF1E14CF
:105540000CF491E0899F802D1124809346033091C3
:1055500045033323B1F020914603222391F045EB1C
:105560003403C0011124992309F471C290934503B7
:1055700045EB240390011124332309F46CC23093CA
:105580004603812F802B09F448C080913F039091FE
:1055900040030E949D179C0190913C03992309F4BC
:1055A0007CC221353105C8F19F3F19F09F5F909370
:1055B0003C03112359F00E945D099FEF11160CF472
:1055C00091E0899F802D112480934703002359F097
:1055D0000E945D099FEF10160CF491E0899F802DC9
:1055E000112480934803309147033323B1F0209175
:1055F0004803222391F045EB3403C0011124992381
:1056000009F42DC29093470345EB24039001112424
:10561000332309F428C230934803809145039091C5
:105620004603892B90914703892B90914803892B3E
:1056300011F00E94B81786E0FE013196A3E4B3E0B2
:1056400001900D928A95E1F70E940C1290913B0314
:10565000891709F457CE80933B0354CE80E0B8CD30
:1056600089E392E0CCCD80914505843021F10E9400
:1056700067121092160540E40FB6F894A895809230
:1056800060000FBE4093600083B7817F846083BF5A
:1056900083B7816083BF7894889583B78E7F83BFFB
:1056A0000FB6F894A895809160008861809360009F
:1056B000109260000FBE80914405882361F00E9423
:1056C000EF25E7EEF2E081918111D1C18FEE92E0FA
:1056D0008E179F07C1F780914505853009F4C3CF28
:1056E0000E948B180E940C1214CEC394FF0C96E0FB
:1056F000C91225CE0F5F1F4F0830110509F015CED6
:105700008FEF8C878D871E860E94AC178160782F63
:10571000988B8F874C855D856E8588890E945F2573
:105720002FCE863059F4F0E0E65AFD4FE4910E2F6B
:1057300010E021E8E22E21E1F22E3ECE893061F424
:10574000E695F0E0E95AFD4FE4910E2F10E092ED5E
:10575000E92E90E1F92E30CE8F3061F4E695F0E03D
:10576000EC5AFD4FE4910E2F10E089E3E82E80E122
:10577000F82E22CE853159F4F0E0EF5AFD4FE49136
:105780000E2F10E0B2EBEB2EBFE0FB2E15CE8831D2
:1057900069F1833249F4EFE4F2E005911491A8E253
:1057A000EA2EA1E1FA2E08CE04EF11E075EEE72E05
:1057B0007EE0F72E843209F4FFCD00ED17E06DE2B4
:1057C000E62E68E0F62E853209F0F6CD8E2F63E0E6
:1057D0000E943630E92FF0E0E45BFD4FE4910E2F9C
:1057E00010E0FAEAEF2EF2E1FF2EE6CD08E210E03B
:1057F000E2E2EE2EEFE0FE2EDFCD0E94AC1790939A
:105800003A038093390385E595E090935C07809394
:105810005B070E94E911882309F442C08FE792E0F8
:105820000E94600D8091FB029091FC02A091FD020C
:10583000B091FE028F309105A105B10560F4FC0125
:10584000E656FB4C0C94643088E792E00E94600DB1
:1058500081E00E946E0D0FEF12E0D8010D90002044
:10586000E9F78D01015011095FEFE52E52E0F52EA9
:10587000E016F10678F080910F05882309F400CE38
:10588000F7CD80E792E0E2CF87E692E0DFCF81E6D6
:1058900092E0DCCFF70181917F010E94DF0CE8CF1D
:1058A00087E892E00E94600DE6CF8091380361E0C6
:1058B00070E08111E5CD082F10E07B01082E02C0B9
:1058C000EE0CFF1C0A94E2F7A9014E215F21452B43
:1058D00009F447C09091370390FD45C08295880F29
:1058E00080768093330198013695279536952795D4
:1058F00020933601815E809334011092370124E6B3
:1059000030E047E050E061E371E088E70E94062E56
:10591000892B09F0B5CDA80125E0440F551F2A9524
:10592000E1F78091370380FD2CC04B5A5A4F04E6B3
:1059300010E020E230E060E488E70E942D2E892B01
:1059400009F09ECD0E948212E094F094809153055C
:1059500090915405E822F922F0925405E092530503
:105960008FCD8F5FA8CF880F880F880F809333016A
:1059700010923601895F8093340183E08093370170
:10598000BECFE7E1F3E080E2DF011D928A95E9F7FF
:10599000EAEDF1E0FA8BE98B06ED11E09EED292EA0
:1059A00091E0392EA989BA892D91BA8BA98BF8017A
:1059B00041908F01440E552E511CC2018B5A9A4FB3
:1059C0002C01E22FF0E0E95EFC4F30E020E087E0C0
:1059D000682E621ACC24C394022E01C0CC0C0A9407
:1059E000EAF7520190E0D5018D915D018C21662D81
:1059F000691B6770762E062E000C770BB82F01C03E
:105A0000BB0F7A94EAF77B2E7195619571096770E7
:105A1000772701C086956A95EAF7782A8081782AE7
:105A200070829F5F9830F9F62F5F3F4F3196283094
:105A3000310569F6E989FA892E163F0609F0B2CFD9
:105A400004E610E020E230E047E153E074CF81E06B
:105A5000809345038DCD81E08093460392CD81E014
:105A600080934703D1CD81E080934803D6CD09BD13
:105A700019BD09B400FEFDCF8091D8008F7D8093C1
:105A8000D8008091E00082608093E0008091E00087
:105A900081FDFCCF0E948B181ECE2B30310508F003
:105AA00085CDBBCD2B30310508F034CD6ACD1092B9
:105AB000B9008CE08093B80008959F92AF92BF9296
:105AC000CF92DF92EF92FF920F931F93CF93DF93CA
:105AD000B82EEB010E94AC176C01EE24E394F12C7C
